:020000040000FA
:0400000007EF00F016
:0A0008005F8269ED11F061EF13F063
:10080000009F087308320809080902290001010045
:10081000C064090400000203000000092111010066
:1008200001221D0007058103400001070501034067
:100830000001240355005300420020004C004500F5
:100840004400200049006E007400650072006600DC
:100850006100630065000600FF0901A1011901297B
:1008600040150026FF0075089540810019012940B8
:100870009100C01A034300680069007300700061B2
:10088000007300200043002E0041002E00120100E2
:100890000200000008D8043F00000101020001042A
:1008A0000309040004012205D8A459EF04F05BEF0A
:1008B00004F075EF04F020511F0B0009D8A463EF7A
:1008C00004F065EF04F075EF04F0408E030E21197B
:1008D000D8A46DEF04F06FEF04F073EF04F0010E95
:1008E000586E75EF04F0000E586E2251D8A47BEFBD
:1008F00004F07DEF04F0F7EF05F020511F0B020A22
:10090000D8A485EF04F087EF04F0F7EF05F0245149
:100910000F0B0009D8B48FEF04F091EF04F0F7EF5C
:1009200005F024510F0B156E020E15609AEF04F0BE
:100930009CEF04F0F7EF05F0200E5B18D8A4A3EFAE
:1009400004F0A5EF04F0F7EF05F0408E24BFABEF05
:1009500004F0ADEF04F0CAEF04F024510F0B156E54
:100960001550020D470EF324D96E000EF420DA6EF6
:10097000DECF1AF0DDCF1BF024510F0B156E166A77
:100980004D0E1524D96E000E1620DA6EDF50196E4A
:10099000E5EF04F024510F0B156E1550020D430EB8
:1009A000F324D96E000EF420DA6EDECF1AF0DDCF1C
:1009B0001BF024510F0B156E166A4F0E1524D96EBD
:1009C000000E1620DA6EDF50196E19B0EAEF04F04F
:1009D000ECEF04F0F4EF04F0FB0E1A141A6EFF0EA5
:1009E0001B141B6EF9EF04F0040E1A101A6E1B5044
:1009F0001B6E24BFFEEF04F000EF05F011EF05F0D1
:100A000024510F0B156E1550020D470EF324D96EAD
:100A1000000EF420DA6E1AC0DEFF1BC0DDFF20EFEF
:100A200005F024510F0B156E1550020D430EF324E3
:100A3000D96E000EF420DA6E1AC0DEFF1BC0DDFF97
:100A4000030E2119D8A427EF05F029EF05F061EF77
:100A500005F01AC0D9FF1BC0DAFFDFAE32EF05F098
:100A600034EF05F053EF05F024BF39EF05F03BEF0D
:100A700005F048EF05F024510F0B156E166A4D0E68
:100A80001524D96E000E1620DA6EDF8253EF05F0C2
:100A900024510F0B156E166A4F0E1524D96E000ED9
:100AA0001620DA6EDF821AC0D9FF1BC0DAFF000EF3
:100AB000DB841AC0D9FF1BC0DAFF000EDB8EF7EF14
:100AC00005F0040E1A181A6E1B501B6E1AC0D9FFBF
:100AD0001BC0DAFFDFAE6FEF05F071EF05F08DEFB1
:100AE00005F01AC0D9FF1BC0DAFF7F0EDF161AC04F
:100AF000D9FF1BC0DAFF000EDB8C000E0E6E050E58
:100B00000D6E1AC00FF01BC010F0000E126E020E18
:100B1000116E3AEC10F093EF05F01AC0D9FF1BC02C
:100B2000DAFF000EDB8C040E1A181A6E1B501B6EB7
:100B300019B29DEF05F09FEF05F0AAEF05F01AC07E
:100B4000D9FF1BC0DAFFDFAEA8EF05F0AAEF05F072
:100B5000E0EF05F0040124BFB0EF05F0B2EF05F0BF
:100B6000BFEF05F024510F0B156E166A4D0E1524BC
:100B7000D96E000E1620DA6EDF92CAEF05F024510E
:100B80000F0B156E166A4F0E1524D96E000E162027
:100B9000DA6EDF921AC0D9FF1BC0DAFF3B0EDF16F8
:100BA000000E0E6E050E0D6E1AC00FF01BC010F079
:100BB000000E126E020E116E3AEC10F0E6EF05F028
:100BC0001AC0D9FF1BC0DAFF3B0EDF160401245107
:100BD0000F0B156E166A700E1524176E0F0E162069
:100BE000186E17C0D9FF18C0DAFFFE0EDF1612000C
:100BF0005B04D8A4FEEF05F000EF06F00DEF06F061
:100C00006DBA05EF06F007EF06F00DEF06F0000EE7
:100C1000686E69806988020E5B6E68A412EF06F048
:100C200014EF06F01EEF06F069A419EF06F01BEFB3
:100C300006F01EEF06F06894BDEC12F06DA223EFF3
:100C400006F025EF06F028EF06F0A19A09EF07F06D
:100C500068A02DEF06F02FEF06F03CEF06F069A03C
:100C600034EF06F036EF06F03CEF06F055EC08F0F6
:100C7000A08A040E5B6E689068A841EF06F043EF0F
:100C800006F04CEF06F069A848EF06F04AEF06F0D0
:100C90004CEF06F04AEC13F068AC51EF06F053EF5E
:100CA00006F07EEF06F069AC58EF06F05AEF06F05A
:100CB00068EF06F0000E0E6E730E0D6E000E0F6ED6
:100CC000000E106E000E126E010E116E3AEC10F056
:100CD000689C16EC13F05650D8B471EF06F073EF21
:100CE00006F074EF06F056065650D8A47AEF06F0D8
:100CF0007CEF06F07EEF06F02BEC0EF068AA83EF97
:100D000006F085EF06F08EEF06F069AA8AEF06F08E
:100D10008CEF06F08EEF06F0CEEC11F068A293EFA8
:100D200006F095EF06F0ABEF06F069A29AEF06F039
:100D30009CEF06F0ABEF06F07F0E0E6E0D68000E16
:100D40000F6E000E106E000E126E010E116E3AEC58
:100D500010F0000E6A6E040E5B60B1EF06F0B3EFA8
:100D600006F0B6EF06F0A19A09EF07F069A6BBEF0F
:100D700006F0BDEF06F008EF07F0000E1D6E68A646
:100D8000C4EF06F0C6EF06F008EF07F06CCF5CF09A
:100D90005C30E832E8320F0B576E68965CB4D3EFE4
:100DA00006F0D5EF06F0DEEF06F04D0E5724D96EB3
:100DB000DA6A000EDA22DF70E5EF06F04F0E5724F4
:100DC000D96EDA6A000EDA22DF705750D8A4EBEF42
:100DD00006F0EDEF06F0F1EF06F087EC0FF0FFEF15
:100DE00006F0000E0E6E720E0D6E5C0E0F6E000E93
:100DF000106E000E126E000E116E3AEC10F01D2AED
:100E0000030E1D6406EF07F008EF07F0BFEF06F0D2
:100E1000A19A1200800E04012019D8A412EF07F045
:100E200014EF07F0AFEF07F0C00E406EA0EF07F031
:100E30008D0E3D6E080E3E6E000E426E120E416E1D
:100E4000AFEF07F02251D8A428EF07F02AEF07F000
:100E500068EF07F02251020D070EF324F66E080E1C
:100E6000F420F76E0900F5CF3DF00A00F5CF3EF013
:100E7000020E3D24016E000E3E20026E01C0F6FF00
:100E800002C0F7FFF86A070EF76403D00800F550B8
:100E900005D0F6CFE9FFF7CFEAFFEF50416E030E22
:100EA0003D24016E000E3E20026E01C0F6FF02C01E
:100EB000F7FFF86A070EF76403D00800F55005D075
:100EC000F6CFE9FFF7CFEAFFEF50426EAFEF07F042
:100ED000000E406EAFEF07F0030E226172EF07F0D5
:100EE00074EF07F098EF07F02251020D010EF32482
:100EF000F66E080EF420F76E0900F5CF3DF00A00FB
:100F0000F5CF3EF03DC0F6FF3EC0F7FFF86A070E92
:100F1000F76403D00800F55005D0F6CFE9FFF7CF0E
:100F2000EAFFEF50016E0150416E426AAFEF07F0E9
:100F3000000E406EAFEF07F0000E406EAFEF07F00F
:100F40002351010AD8B418EF07F0030AD8B422EFEE
:100F500007F0010AD8B46CEF07F09CEF07F012001D
:100F6000A09A000E6A6E000E686E000E706E710E12
:100F70002A6E0F0E2B6E000E2D6E000E2C6E000EC4
:100F80002F6E010E2E6EDEEC12F0160E6F6E9F0E9F
:100F90006B6E7B0E696E000E326E3250040D000EC9
:100FA000F324D96E040EF420DA6EDE6ADE6ADE6A9D
:100FB000DD6A322A070E3264E0EF07F0E2EF07F055
:100FC000CDEF07F06D8C000E6E6E6D986D9C68967F
:100FD000000E406E000E386E000E3A6E000E396E36
:100FE00068B6F5EF07F0F7EF07F0E7EF07F0010E4F
:100FF00000016E6F010E6D6F000E6C6F000E6B6F57
:10100000000E706F000E326E3250020D430EF3244C
:10101000D96E000EF420DA6E000EDE6E000EDD6E6C
:101020003250020D470EF324D96E000EF420DA6E12
:10103000000EDE6E000EDD6E4F0E3224D96EDA6ABF
:10104000000EDA22000EDF6E4D0E3224D96EDA6AFF
:10105000000EDA22000EDF6E322A010E326433EF08
:1010600008F035EF08F004EF08F0080E436E040EA8
:10107000446E160E706E040E0401036F200E026F94
:10108000080E016F040E006F008F000E5E6E000EE2
:101090000001606F000E616F000E626F000E636FE3
:1010A000000E6A6F000E5B6E1200A09A000E6A6E50
:1010B000000E686E000E706E710E016E0F0E026EE5
:1010C000000E046E000E036E000E066E010E056E1D
:1010D000FAEC12F0160E6F6E9F0E6B6E7B0E696E41
:1010E000000E096E0950040D000EF324D96E040E93
:1010F000F420DA6EDE6ADE6ADE6ADD6A092A070E2D
:10110000096485EF08F087EF08F072EF08F06D8C46
:10111000000E6E6E6D986D9C6896000E406E000E0F
:10112000386E000E3A6E000E396E68B69AEF08F00F
:101130009CEF08F08CEF08F0010E00016E6F010EBD
:101140006D6F000E6C6F000E6B6F000E706F000EF7
:10115000096E0950020D430EF324D96E000EF420DF
:10116000DA6E000EDE6E000EDD6E0950020D470EC7
:10117000F324D96E000EF420DA6E000EDE6E000E3F
:10118000DD6E4F0E0924D96EDA6A000EDA22000EE7
:10119000DF6E4D0E0924D96EDA6A000EDA22000ED7
:1011A000DF6E092A010E0964D8EF08F0DAEF08F0C3
:1011B000A9EF08F0080E436E040E446E160E706E12
:1011C000040E0401036F200E026F080E016F040E5F
:1011D000006F008F000E5E6E000E0001606F000E4B
:1011E000616F000E626F000E636F000E6A6F000E7B
:1011F0005B6E12006D9840BE00EF09F002EF09F03F
:1012000049EF09F038AE07EF09F009EF09F01DEFDB
:1012100009F0020E596E00016B51D8A412EF09F0CB
:1012200014EF09F016EF09F0E3EC0FF0000E0001E7
:101230006D6F000E6E6F9EEF09F020EE01F05150C1
:10124000D9265250DA22080EDF6E20EE02F05150FD
:10125000D9265250DA22200EDE6E040EDD6E51C009
:10126000D9FF52C0DAFF0C0EDF6E51C0D9FF52C059
:10127000DAFF000EDB8E43C0D9FF44C0DAFF040E54
:10128000DF6E43C0D9FF44C0DAFF000EDB8E9EEF55
:1012900009F0040120AF4FEF09F051EF09F06FEFB3
:1012A00009F0010E596E00016C51D8A45AEF09F0F3
:1012B0005CEF09F05EEF09F0E3EC0FF0000E0001C7
:1012C0006D6F000E6E6F5550D8A469EF09F06BEF8B
:1012D00009F09EEF09F02BEC0EF09EEF09F0020EE4
:1012E000596E20EE01F05150D9265250DA22080EE4
:1012F000DF6E20EE02F05150D9265250DA22200E35
:10130000DE6E040EDD6E51C0D9FF52C0DAFF040E4E
:10131000DF6E51C0D9FF52C0DAFF000EDB8E000E27
:1013200000016D6F000E6E6F5550D8A49AEF09F052
:101330009CEF09F09EEF09F06BEF09F0120020EE30
:1013400001F05350D9265450DA22DF50026E025079
:10135000395C000E3A58D8B0B0EF09F0B2EF09F09E
:10136000B4EF09F039C002F00250395E000E3A5A6B
:10137000000E016ECBEF09F0280E0124D96EDA6A57
:10138000040EDA2235C0E1FF36C0E2FFDFCFE7FF0F
:10139000354A362A012A0250015CD8A0D2EF09F062
:1013A000D4EF09F0BCEF09F039503A10D8B4DBEFB4
:1013B00009F0DDEF09F016EF0AF020EE01F05150D0
:1013C000D9265250DA22080EDF6E20EE02F051507C
:1013D000D9265250DA22280EDE6E040EDD6E53C07E
:1013E000D9FF54C0DAFFDFBCF8EF09F0FAEF09F0DB
:1013F00008EF0AF051C0D9FF52C0DAFF480EDF6E85
:1014000051C0D9FF52C0DAFF000EDB8E3FEF0AF069
:1014100051C0D9FF52C0DAFF080EDF6E51C0D9FFAC
:1014200052C0DAFF000EDB8E3FEF0AF020EE01F033
:101430005150D9265250DA22080EDF6E20EE02F00B
:101440005150D9265250DA22200EDE6E040EDD6E87
:1014500051C0D9FF52C0DAFF040EDF6E51C0D9FF70
:1014600052C0DAFF000EDB8E389E5550D8A43BEFF9
:101470000AF03DEF0AF03FEF0AF02BEC0EF01200FD
:10148000326E2A50D8B447EF0AF049EF0AF057EF0E
:101490000AF03250020D430EF324D96E000EF420F0
:1014A000DA6EDECF33F0DDCF34F063EF0AF0325086
:1014B000020D470EF324D96E000EF420DA6EDECF53
:1014C00033F0DDCF34F033503410D8A46AEF0AF093
:1014D0006CEF0AF072EF0AF0000E2A6E000E2B6E0F
:1014E000DEEF0AF020EE02F03350D9263450DA2233
:1014F0002BC0DEFF2CC0DDFF20EE01F03350D926DB
:101500003450DA222DC0DFFF33C0D9FF34C0DAFFF8
:10151000400EDF1633C0D9FF34C0DAFF000EDB8681
:1015200033C0D9FF34C0DAFF000EDB8E2A50D8B4A6
:101530009CEF0AF09EEF0AF0BDEF0AF03250020D68
:10154000430EF324D96E000EF420DA6EDECF2EF0B7
:10155000DDCF2FF0040E2E18306E2F50316E32502A
:10156000020D430EF324D96E000EF420DA6E30C063
:10157000DEFF31C0DDFFDAEF0AF03250020D470E18
:10158000F324D96E000EF420DA6EDECF2EF0DDCF1C
:101590002FF0040E2E18306E2F50316E3250020D87
:1015A000470EF324D96E000EF420DA6E30C0DEFF51
:1015B00031C0DDFF33C02AF034C02BF01200096EB9
:1015C0000150D8B4E6EF0AF0E8EF0AF0F6EF0AF0BF
:1015D0000950020D430EF324D96E000EF420DA6E8A
:1015E000DECF0AF0DDCF0BF002EF0BF00950020D59
:1015F000470EF324D96E000EF420DA6EDECF0AF027
:10160000DDCF0BF00A500B10D8A409EF0BF00BEF55
:101610000BF011EF0BF0000E016E000E026E7DEF6D
:101620000BF020EE02F00A50D9260B50DA2202C04D
:10163000DEFF03C0DDFF20EE01F00A50D9260B507B
:10164000DA2204C0DFFF0AC0D9FF0BC0DAFF400E68
:10165000DF160AC0D9FF0BC0DAFF000EDB860AC016
:10166000D9FF0BC0DAFF000EDB8E0150D8B43BEF80
:101670000BF03DEF0BF05CEF0BF00950020D430E49
:10168000F324D96E000EF420DA6EDECF05F0DDCF44
:1016900006F0040E0518076E0650086E0950020D7C
:1016A000430EF324D96E000EF420DA6E07C0DEFF7D
:1016B00008C0DDFF79EF0BF00950020D470EF3244F
:1016C000D96E000EF420DA6EDECF05F0DDCF06F025
:1016D000040E0518076E0650086E0950020D470EDD
:1016E000F324D96E000EF420DA6E07C0DEFF08C0C6
:1016F000DDFF0AC001F00BC002F01200040120510E
:101700001F0BE806D8B487EF0BF089EF0BF08BEFD7
:101710000BF01BEF0CF02451D8B491EF0BF093EFCA
:101720000BF095EF0BF01BEF0CF0060E2119D8A46F
:101730009CEF0BF09EEF0BF0CFEF0BF0C0EF0BF038
:101740005E04D8A4A6EF0BF0A8EF0BF0CFEF0BF0E0
:101750001B0E3D6E080E3E6E000E426E090E416E6F
:10176000C00E406ECFEF0BF0560E3D6E080E3E6E73
:10177000000E426E1D0E416EC00E406ECFEF0BF09C
:101780002351210AD8B4A0EF0BF0030AD8B4B4EF68
:101790000BF0010AD8B4CFEF0BF0CFEF0BF02039EC
:1017A000E832030BE806D8B4D8EF0BF0DAEF0BF011
:1017B00000EF0CF01BEF0CF0720E3D6E000E3E6E53
:1017C000000E426E010E416EC10E406E1BEF0CF01A
:1017D000800E406E23C472F01BEF0CF0710E3D6E54
:1017E000000E3E6E000E426E010E416E810E406E86
:1017F0001BEF0CF0800E406E22C471F01BEF0CF05A
:101800002151010AD8B41BEF0CF0030AD8B4DCEF65
:101810000BF0010AD8B4EEEF0BF00A0AD8B41BEFB4
:101820000CF0030AD8B4E8EF0BF0010AD8B4FAEFD1
:101830000BF01BEF0CF01200080E016E425007E196
:10184000080E415CD8B027EF0CF029EF0CF041EF07
:101850000CF041C001F05A50D8A431EF0CF033EF36
:101860000CF037EF0CF0010E5A6E41EF0CF05A04F9
:10187000D8A43DEF0CF03FEF0CF041EF0CF0020E5E
:101880005A6E0150415E000E425A20EE01F0435064
:10189000D9264450DA2201C0DFFF280E0001686F0C
:1018A000040E696F40B057EF0CF059EF0CF09BEF4E
:1018B0000CF076EF0CF03DC0F6FF3EC0F7FFF86A83
:1018C00068C0D9FF69C0DAFF070EF76403D00800CB
:1018D000F55005D0F6CFE9FFF7CFEAFFEF50DF6E06
:1018E0003D4A3E2A0001684B692B01060150D8A4ED
:1018F0007CEF0CF07EEF0CF05BEF0CF0A3EF0CF044
:101900003DC0F6FF3EC0F7FFF86A68C0D9FF69C066
:10191000DAFF070EF76403D00800F55005D0F6CFC4
:10192000E9FFF7CFEAFFEF50DF6E3D4A3E2A0001A4
:10193000684B692B01060150D8A4A1EF0CF0A3EF6E
:101940000CF080EF0CF0120004012039E832030B98
:101950000009D8B4AEEF0CF0B0EF0CF0F8EF0CF0DB
:1019600027EF0DF0408E080E5B6E27EF0DF00AECAE
:1019700007F027EF0DF0A4EC0EF027EF0DF05E0E50
:101980003D6E000E3E6E4080010E416E408E27EF90
:101990000DF0AAEC0DF027EF0DF052EC04F027EF5C
:1019A0000DF05D0E24253D6E3E6A000E3E22408005
:1019B000010E416E408E27EF0DF0408E5D0E242506
:1019C000D96EDA6A000EDA2222C4DFFF27EF0DF0AB
:1019D000000E0E6E020E0D6E000E0F6E000E106EDB
:1019E000000E126E000E116E3AEC10F027EF0DF0A3
:1019F0002151000AD8B4C9EF0CF0010AD8B4CDEFD8
:101A00000CF0020AD8B4CDEF0CF0060AD8B4B2EF4D
:101A10000CF0030AD8B4B7EF0CF0010AD8B4E8EF21
:101A20000CF00F0AD8B4BFEF0CF0010AD8B4BBEF2A
:101A30000CF0030AD8B4D1EF0CF0010AD8B4DDEFF2
:101A40000CF0070AD8B427EF0DF027EF0DF01200C5
:101A500043C0D9FF44C0DAFF000EDFBC010E026EA6
:101A6000040E4318436E4450446E080E5B18D8A40D
:101A70003CEF0DF03EEF0DF050EF0DF00401225160
:101A80007F0B6E6E6E50D8B448EF0DF04AEF0DF03C
:101A90004EEF0DF0100E5B6E50EF0DF0040E5B6E0E
:101AA0005904D8A456EF0DF058EF0DF09FEF0DF04C
:101AB00020EE02F04350D9264450DA22280EDE6E82
:101AC000040EDD6E1CEC0CF0020E5A18D8A46BEF5D
:101AD0000DF06DEF0DF07BEF0DF043C0D9FF44C06A
:101AE000DAFF040EDF6E43C0D9FF44C0DAFF000EF8
:101AF000DB8EA9EF0DF00250D8A481EF0DF083EF3B
:101B00000DF091EF0DF043C0D9FF44C0DAFF480E4D
:101B1000DF6E43C0D9FF44C0DAFF000EDB8EA9EFB1
:101B20000DF043C0D9FF44C0DAFF080EDF6E43C09A
:101B3000D9FF44C0DAFF000EDB8EA9EF0DF038AEFE
:101B4000A4EF0DF0A6EF0DF0A7EF0DF0389E000EFC
:101B5000596E1200000E0401286F000E296F0CEF61
:101B60000EF0408E5804D8A4B8EF0DF0BAEF0DF087
:101B70001CEF0EF028831CEF0EF0408E1CEF0EF0D1
:101B8000408E24510F0B0009D8B4C9EF0DF0CBEFF4
:101B90000DF01CEF0EF024BFD0EF0DF0D2EF0DF0E2
:101BA000E3EF0DF024510F0B016E0150020D470EB3
:101BB000F324D96E000EF420DA6EDECF02F0DDCF12
:101BC00003F0F2EF0DF024510F0B016E0150020DE6
:101BD000430EF324D96E000EF420DA6EDECF02F04D
:101BE000DDCF03F002C0D9FF03C0DAFFDFAEFBEFA9
:101BF0000DF0FDEF0DF01CEF0EF002C0D9FF03C099
:101C0000DAFFDFA406EF0EF008EF0EF01CEF0EF087
:101C1000010E286F1CEF0EF020511F0B000AD8B4E4
:101C2000B1EF0DF0010AD8B4BDEF0DF0030AD8B43E
:101C3000C0EF0DF01CEF0EF040AE21EF0EF023EFE1
:101C40000EF02AEF0EF0280E3D6E040E3E6E408020
:101C5000020E416E120000016E51D8A432EF0EF058
:101C600034EF0EF0A3EF0EF0010E6E6F6D51D8A49D
:101C70003CEF0EF03EEF0EF0A3EF0EF0010E6D6F95
:101C8000020E5918D8A447EF0EF049EF0EF05FEF9F
:101C90000EF020EE01F04350D9264450DA22000E17
:101CA000DF6E43C0D9FF44C0DAFF480EDF6E43C089
:101CB000D9FF44C0DAFF000EDB8EA3EF0EF059040B
:101CC000D8A465EF0EF067EF0EF0A3EF0EF0000E54
:101CD0006F6F20EE01F05350D9265450DA22080ECF
:101CE000DF6E20EE02F05350D9265450DA22200E37
:101CF000DE6E040EDD6E53C0D9FF54C0DAFF040E51
:101D0000DF6E53C0D9FF54C0DAFF000EDB8E010E28
:101D10006F6F20EE01F05150D9265250DA22080E92
:101D2000DF6E20EE02F05150D9265250DA22200EFA
:101D3000DE6E040EDD6E51C0D9FF52C0DAFF800E98
:101D4000DF6EA3EF0EF01200408E710E016E0F0ECB
:101D5000026E000E046E000E036E000E066E010E83
:101D6000056EFAEC12F0000E016E040E026E000E0B
:101D7000046E000E036E000E066E200E056EFAEC69
:101D800012F06D8C000E156E4F0E1524D96EDA6AA6
:101D9000000EDA22000EDF6E4D0E1524D96EDA6ABF
:101DA000000EDA22000EDF6E152A010E1564DBEF3D
:101DB0000EF0DDEF0EF0C4EF0EF05D0E016E000EC2
:101DC000026E000E046E000E036E000E066E010E13
:101DD000056EFAEC12F06D9C080E436E040E446E14
:101DE000000E536E040E546E53C051F054C052F0A6
:101DF00022C45EF05E50D8A400EF0FF002EF0FF0A7
:101E000006EF0FF0100E5B6E16EF0FF0000E0E6E69
:101E1000010E0D6E5E0E0F6E000E106E000E126E35
:101E2000010E116E3AEC10F0200E5B6E12006DA2E6
:101E30001CEF0FF01EEF0FF07DEF0FF0010E4DECD9
:101E400012F086EF0FF04B044C10D8A42AEF0FF0DD
:101E50002CEF0FF031EF0FF0010E26EC12F084EFB3
:101E60000FF04B0E4B184C10D8A439EF0FF03BEF8E
:101E70000FF040EF0FF0010E4DEC12F084EF0FF079
:101E80004C5009E1970E4B5CD8A049EF0FF04BEF97
:101E90000FF051EF0FF0000E4C6E000E4B6E84EF02
:101EA0000FF084EF0FF04B044C10D8A45AEF0FF052
:101EB0005CEF0FF061EF0FF0010E26EC12F084EFF3
:101EC0000FF0320E4B184C10D8A469EF0FF06BEFE7
:101ED0000FF070EF0FF0010E4DEC12F084EF0FF0E9
:101EE000B70E4B5C030E4C58D8A079EF0FF07BEF88
:101EF0000FF084EF0FF04BEF0FF05B50200AD8B4D7
:101F000023EF0FF053EF0FF04B4A4C2A12002D0E27
:101F1000566E5CC01CF0FD0E1C16D8A492EF0FF09C
:101F200094EF0FF0D6EF0FF05CC01CF0D8901C328D
:101F30003F0E1C161C50040D000EF324536E040EAD
:101F4000F420546E53C051F054C052F0040E511896
:101F5000516E5250526E53C0D9FF54C0DAFFDF3079
:101F6000E8320F0B0D0AD8A4B8EF0FF0BAEF0FF05C
:101F7000D2EF0FF0200E016E040E026E20EE02F082
:101F80005350D9265450DA22DECF03F0DDCF04F0CF
:101F9000000E066E080E056EFEEC11F0E6EC10F079
:101FA000E2EF0FF02EEC11F0E2EF0FF05C50FD0BC2
:101FB000040AD8A4DEEF0FF0E0EF0FF0E2EF0FF02D
:101FC00028EC0DF01200000E00016C6F000E6B6F1C
:101FD000020E5918D8A4EFEF0FF0F1EF0FF011EF48
:101FE00010F020EE01F05150D9265250DA22080E9E
:101FF000DF6E20EE02F05150D9265250DA22280E20
:10200000DE6E040EDD6E51C0D9FF52C0DAFF480EFD
:10201000DF6E51C0D9FF52C0DAFF000EDB8E39EF00
:1020200010F041500401265D42502759D8B01BEFF3
:1020300010F01DEF10F021EF10F026C441F027C47E
:1020400042F01CEC0CF020EE02F04350D926445034
:10205000DA22280EDE6E040EDD6E43C0D9FF44C0C6
:10206000DAFF480EDF6E43C0D9FF44C0DAFF000E2E
:10207000DB8E120056EF10F017EC0FF08FEF10F020
:1020800017EC0FF0010E85EC13F08FEF10F017EC4A
:102090000FF0020E85EC13F08FEF10F030EC13F020
:1020A0008FEF10F07EEC0BF08FEF10F00DC013F0FF
:1020B0000EC014F01450000AD8B465EF10F07F0A77
:1020C000D8B488EF10F08FEF10F01350010AD8B495
:1020D0004EEF10F0030AD8B48FEF10F0010AD8B415
:1020E00052EF10F0060AD8B48FEF10F0770AD8B488
:1020F0008FEF10F0010AD8B43CEF10F0070AD8B403
:1021000047EF10F0010AD8B440EF10F08FEF10F055
:102110001350FF0AD8B48FEF10F08FEF10F01200B9
:10212000066E000E076E040E086E0150026E036A02
:10213000D890023603360650046E056AD8900436ED
:102140000536D89004360536025004260350052281
:10215000D89004360536D890043605360450072644
:102160000550082207C0D9FF08C0DAFFDF9E0150E2
:10217000D8A4BDEF10F0BFEF10F0CDEF10F0065077
:10218000020D470EF324D96E000EF420DA6E07C05C
:10219000DEFF08C0DDFFD9EF10F00650020D430E40
:1021A000F324D96E000EF420DA6E07C0DEFF08C0FB
:1021B000DDFF07C0D9FF08C0DAFFDF9C20EE04F086
:1021C0000750D9260850DA22DF8C1200000E5A6E12
:1021D000000E556E000E00016C6F000E6B6F000E4E
:1021E0006F6F000E596E43C0D9FF44C0DAFF7F0EF7
:1021F000DF16040E4318436E4450446E43C0D9FFAB
:1022000044C0DAFF7F0EDF16040E4318436E4450BD
:10221000446E51C0D9FF52C0DAFF7F0EDF16000EA8
:10222000406E000E426E000E416E000E386E000EC3
:102230003A6E000E396EA4EC0CF0000E0E6E030E1A
:102240000D6E000E0F6E000E106E000E126E000E60
:10225000116E3AEC10F0FAEC08F01200020E591868
:10226000D8A435EF11F037EF11F03BEF11F09FECF0
:1022700009F068EF11F0000E596E00016F51D8A4FB
:1022800044EF11F046EF11F066EF11F020EE01F08F
:102290005150D9265250DA22080EDF6E20EE02F09D
:1022A0005150D9265250DA22200EDE6E040EDD6E19
:1022B00051C0D9FF52C0DAFF0C0EDF6E51C0D9FFFA
:1022C00052C0DAFF000EDB8E68EF11F0000E6F6F68
:1022D00012000600E9CF1EF0EACF1FF0E1CF20F098
:1022E000E2CF21F0D9CF22F0DACF23F0F3CF24F0E0
:1022F000F4CF25F0F6CF26F0F7CF27F0F8CF28F06F
:10230000F5CF29F0F8EC05F029C0F5FF28C0F8FF5B
:1023100027C0F7FF26C0F6FF25C0F4FF24C0F3FF57
:1023200023C0DAFF22C0D9FF21C0E2FF20C0E1FFB5
:102330001FC0EAFF1EC0E9FF5F921100000E74EC9F
:1023400013F0B0EC07F09AEC12F0959E8C9EAFEF74
:1023500011F08C8EBBEF11F08C9EBBEF11F00501DC
:102360000051460AD8B4ACEF11F0080AD8B4A9EF6E
:1023700011F0BBEF11F0000E2A6E000E2B6E050E51
:102380002C6E400E2D6E010E40EC0AF02AC066F055
:102390002BC067F0AFEF11F007EF00F070A0D3EFA4
:1023A00011F0D5EF11F0FCEF11F053C0D9FF54C07C
:1023B000DAFF800EDE18D8A4E0EF11F0E2EF11F0A2
:1023C000FBEF11F043C0D9FF44C0DAFF840EDE18E2
:1023D000D8A4EDEF11F0EFEF11F0FBEF11F053C0C7
:1023E000D9FF54C0DAFF0C0EDF6E53C0D9FF54C0C2
:1023F000DAFF000EDB8E7090689A120003C009F0BD
:1024000004C00AF001C007F002C008F018EF12F093
:1024100009C0D9FF0AC0DAFFDF500B6E094A0A2A49
:1024200007C0D9FF08C0DAFF0BC0DFFF074A082A40
:102430000506D8A00606052806E10628D8A423EF3D
:1024400012F025EF12F008EF12F01200016E35EFD6
:1024500012F08C804CEF12F08C824CEF12F08C84D6
:102460004CEF12F08C864CEF12F00150000AD8B4F9
:102470004CEF12F0010AD8B429EF12F0030AD8B4D5
:102480002CEF12F0010AD8B42FEF12F0070AD8B4DB
:1024900032EF12F04CEF12F01200016E5CEF12F00E
:1024A0008C9073EF12F08C9273EF12F08C9473EFA8
:1024B00012F08C9673EF12F00150000AD8B473EF4B
:1024C00012F0010AD8B450EF12F0030AD8B453EF57
:1024D00012F0010AD8B456EF12F0070AD8B459EF37
:1024E00012F073EF12F012000C6E09A47AEF12F0E2
:1024F0007CEF12F081EF12F0000E016E0C5090ECA8
:1025000010F009A286EF12F088EF12F08DEF12F0B2
:10251000010E016E0C5090EC10F0700E0C240A6E3F
:102520000B6A0F0E0B220AC0D9FF0BC0DAFF09C0DD
:10253000DFFF12005B50D8A4A0EF12F0A2EF12F060
:10254000BCEF12F0000E6D6E000E696E160E6F6E0F
:102550009F0E6B6E7B0E696ED08EA28AA08AF28E61
:10256000B3EF12F06D866DA6B8EF12F0BAEF12F06D
:10257000B2EF12F0010E5B6E1200000E0001706FE0
:10258000000E0E6E740E0D6E000E0F6E000E106EAD
:10259000000E126E000E116E3AEC10F06D926994FE
:1025A000D3EF12F0689468B4D8EF12F0DAEF12F0BB
:1025B000D2EF12F0000E00016A6F12002AC030F054
:1025C0002BC031F0ECEF12F030C0D9FF31C0DAFF90
:1025D0002CC0DFFF304A312A2E06D8A02F062E2825
:1025E00006E12F28D8A4F7EF12F0F9EF12F0E4EF8C
:1025F00012F0120001C007F002C008F008EF13F05B
:1026000007C0D9FF08C0DAFF03C0DFFF074A082A66
:102610000506D8A00606052806E10628D8A413EF6B
:1026200013F015EF13F000EF13F01200010E00018C
:102630006027000E6123622363237051D8A423EF27
:1026400013F025EF13F02FEF13F06A2B6A51D8A483
:102650002CEF13F02EEF13F02FEF13F06A69120036
:10266000000E0001646F000E656F1E0E096E010EF4
:1026700074EC12F0000E016E000E026E050E036E79
:10268000400E046E010EDFEC0AF001C066F002C0DD
:1026900067F01200698468986D82010E0001706F06
:1026A000000E6A6F000E0E6E750E0D6E000E0F6E30
:1026B000000E106E000E126E000E116E3AEC10F04D
:1026C000120000EE60F0130EEE6AE806FDE100EE87
:1026D00035F02A0EEE6AE806FDE15F905F92000E8B
:1026E000F86E00019EEF11F02A6E2A50000AD8B44D
:1026F00084EF13F0010AD8B484EF13F0030AD8B4BE
:1027000084EF13F084EF13F01200016E0150000A01
:10271000D8B495EF13F0010AD8B495EF13F0030A7B
:0C272000D8B495EF13F095EF13F0120001
:020000040020DA
:08000000FFFFFFFFFFFFFFFF00
:020000040030CA
:0E000000240E3F1EFF8181FF0FC00FE00F4056
:00000001FF
