:020000040000FA
:0400000007EF00F016
:0A0008005F827BED11F073EF13F03F
:1008000000C30809083D086B0834034D0069006304
:100810000072006F006300680069007000200054DF
:10082000006500630068006E006F006C006F006779
:10083000007900200049006E0063002E002E035353
:100840000069006D0070006C0065002000480049E0
:1008500000440020004400650076006900630065E4
:10086000002000440065006D006F000902290001AE
:100870000100C06409040000020300000009211106
:10088000010001221D000705810340000107050149
:10089000034000010600FF0901A1011901294015CB
:1008A0000026FF007508954081001901294091003C
:1008B000C01201000200000008D8043F000001013E
:1008C000020001040309040004012205D8A46BEF0F
:1008D00004F06DEF04F087EF04F020511F0B0009C6
:1008E000D8A475EF04F077EF04F087EF04F0408EA2
:1008F000030E2119D8A47FEF04F081EF04F085EFF7
:1009000004F0010E586E87EF04F0000E586E22516D
:10091000D8A48DEF04F08FEF04F009EF06F020511A
:100920001F0B020AD8A497EF04F099EF04F009EF27
:1009300006F024510F0B0009D8B4A1EF04F0A3EF87
:1009400004F009EF06F024510F0B156E020E15602E
:10095000ACEF04F0AEEF04F009EF06F0200E5B18E8
:10096000D8A4B5EF04F0B7EF04F009EF06F0408E1D
:1009700024BFBDEF04F0BFEF04F0DCEF04F024511E
:100980000F0B156E1550020D470EF324D96E000E95
:10099000F420DA6EDECF1AF0DDCF1BF024510F0BFE
:1009A000156E166A4D0E1524D96E000E1620DA6EDD
:1009B000DF50196EF7EF04F024510F0B156E155030
:1009C000020D430EF324D96E000EF420DA6EDECF52
:1009D0001AF0DDCF1BF024510F0B156E166A4F0E67
:1009E0001524D96E000E1620DA6EDF50196E19B07C
:1009F000FCEF04F0FEEF04F006EF05F0FB0E1A1416
:100A00001A6EFF0E1B141B6E0BEF05F0040E1A106E
:100A10001A6E1B501B6E24BF10EF05F012EF05F08D
:100A200023EF05F024510F0B156E1550020D470EE4
:100A3000F324D96E000EF420DA6E1AC0DEFF1BC05C
:100A4000DDFF32EF05F024510F0B156E1550020D2E
:100A5000430EF324D96E000EF420DA6E1AC0DEFFC6
:100A60001BC0DDFF030E2119D8A439EF05F03BEFC1
:100A700005F073EF05F01AC0D9FF1BC0DAFFDFAE37
:100A800044EF05F046EF05F065EF05F024BF4BEFAE
:100A900005F04DEF05F05AEF05F024510F0B156EE0
:100AA000166A4D0E1524D96E000E1620DA6EDF82FE
:100AB00065EF05F024510F0B156E166A4F0E1524C5
:100AC000D96E000E1620DA6EDF821AC0D9FF1BC065
:100AD000DAFF000EDB841AC0D9FF1BC0DAFF000E5C
:100AE000DB8E09EF06F0040E1A181A6E1B501B6EEF
:100AF0001AC0D9FF1BC0DAFFDFAE81EF05F083EF2C
:100B000005F09FEF05F01AC0D9FF1BC0DAFF7F0E7A
:100B1000DF161AC0D9FF1BC0DAFF000EDB8C000EF7
:100B20000E6E050E0D6E1AC00FF01BC010F0000EF9
:100B3000126E020E116E4CEC10F0A5EF05F01AC00B
:100B4000D9FF1BC0DAFF000EDB8C040E1A181A6ED8
:100B50001B501B6E19B2AFEF05F0B1EF05F0BCEF03
:100B600005F01AC0D9FF1BC0DAFFDFAEBAEF05F0FF
:100B7000BCEF05F0F2EF05F0040124BFC2EF05F071
:100B8000C4EF05F0D1EF05F024510F0B156E166A76
:100B90004D0E1524D96E000E1620DA6EDF92DCEFB2
:100BA00005F024510F0B156E166A4F0E1524D96EE1
:100BB000000E1620DA6EDF921AC0D9FF1BC0DAFFD2
:100BC0003B0EDF16000E0E6E050E0D6E1AC00FF0F6
:100BD0001BC010F0000E126E020E116E4CEC10F0E5
:100BE000F8EF05F01AC0D9FF1BC0DAFF3B0EDF1685
:100BF000040124510F0B156E166A700E1524176E22
:100C00000F0E1620186E17C0D9FF18C0DAFFFE0E9F
:100C1000DF1612005B04D8A410EF06F012EF06F006
:100C20001FEF06F06DBA17EF06F019EF06F01FEF91
:100C300006F0000E686E69806988020E5B6E68A41B
:100C400024EF06F026EF06F030EF06F069A42BEF54
:100C500006F02DEF06F030EF06F06894CFEC12F0BE
:100C60006DA235EF06F037EF06F03AEF06F0A19AE5
:100C70001BEF07F068A03FEF06F041EF06F04EEFE4
:100C800006F069A046EF06F048EF06F04EEF06F0DA
:100C900067EC08F0A08A040E5B6E689068A853EFBA
:100CA00006F055EF06F05EEF06F069A85AEF06F081
:100CB0005CEF06F05EEF06F05CEC13F068AC63EFFF
:100CC00006F065EF06F090EF06F069AC6AEF06F00B
:100CD0006CEF06F07AEF06F0000E0E6E730E0D6EDE
:100CE000000E0F6E000E106E000E126E010E116ED1
:100CF0004CEC10F0689C28EC13F05650D8B483EFFD
:100D000006F085EF06F086EF06F056065650D8A49A
:100D10008CEF06F08EEF06F090EF06F03DEC0EF053
:100D200068AA95EF06F097EF06F0A0EF06F069AA23
:100D30009CEF06F09EEF06F0A0EF06F0E0EC11F05D
:100D400068A2A5EF06F0A7EF06F0BDEF06F069A2D6
:100D5000ACEF06F0AEEF06F0BDEF06F07F0E0E6EC4
:100D60000D68000E0F6E000E106E000E126E010E5A
:100D7000116E4CEC10F0000E6A6E040E5B60C3EF57
:100D800006F0C5EF06F0C8EF06F0A19A1BEF07F0DA
:100D900069A6CDEF06F0CFEF06F01AEF07F0000ED0
:100DA0001D6E68A6D6EF06F0D8EF06F01AEF07F032
:100DB0006CCF5CF05C30E832E8320F0B576E68960F
:100DC0005CB4E5EF06F0E7EF06F0F0EF06F04D0E4D
:100DD0005724D96EDA6A000EDA22DF70F7EF06F0D8
:100DE0004F0E5724D96EDA6A000EDA22DF705750A0
:100DF000D8A4FDEF06F0FFEF06F003EF07F099EC43
:100E00000FF011EF07F0000E0E6E720E0D6E5C0EFD
:100E10000F6E000E106E000E126E000E116E4CEC76
:100E200010F01D2A030E1D6418EF07F01AEF07F0EB
:100E3000D1EF06F0A19A1200800E04012019D8A467
:100E400024EF07F026EF07F0C1EF07F0C00E406E69
:100E5000B2EF07F0B10E3D6E080E3E6E000E426E10
:100E6000120E416EC1EF07F02251D8A43AEF07F0FD
:100E70003CEF07F07AEF07F02251020D070EF32442
:100E8000F66E080EF420F76E0900F5CF3DF00A006B
:100E9000F5CF3EF0020E3D24016E000E3E20026EA4
:100EA00001C0F6FF02C0F7FFF86A070EF76403D02F
:100EB0000800F55005D0F6CFE9FFF7CFEAFFEF5075
:100EC000416E030E3D24016E000E3E20026E01C0F5
:100ED000F6FF02C0F7FFF86A070EF76403D00800B8
:100EE000F55005D0F6CFE9FFF7CFEAFFEF50426E9D
:100EF000C1EF07F0000E406EC1EF07F0030E226154
:100F000084EF07F086EF07F0AAEF07F02251020DF9
:100F1000010EF324F66E080EF420F76E0900F5CFEB
:100F20003DF00A00F5CF3EF03DC0F6FF3EC0F7FFB2
:100F3000F86A070EF76403D00800F55005D0F6CF25
:100F4000E9FFF7CFEAFFEF50016E0150416E426AB0
:100F5000C1EF07F0000E406EC1EF07F0000E406ECB
:100F6000C1EF07F02351010AD8B42AEF07F0030AB2
:100F7000D8B434EF07F0010AD8B47EEF07F0AEEF33
:100F800007F01200A09A000E6A6E000E686E000E46
:100F9000706E710E2A6E0F0E2B6E000E2D6E000EEF
:100FA0002C6E000E2F6E010E2E6EF0EC12F0160E4F
:100FB0006F6E9F0E6B6E7B0E696E000E326E32503E
:100FC000040D000EF324D96E040EF420DA6EDE6AEE
:100FD000DE6ADE6ADD6A322A070E3264F2EF07F05B
:100FE000F4EF07F0DFEF07F06D8C000E6E6E6D987A
:100FF0006D9C6896000E406E000E386E000E3A6EC4
:10100000000E396E68B607EF08F009EF08F0F9EF47
:1010100007F0010E00016E6F010E6D6F000E6C6F18
:10102000000E6B6F000E706F000E326E3250020DAC
:10103000430EF324D96E000EF420DA6E000EDE6E3D
:10104000000EDD6E3250020D470EF324D96E000EF5
:10105000F420DA6E000EDE6E000EDD6E4F0E3224CE
:10106000D96EDA6A000EDA22000EDF6E4D0E3224DF
:10107000D96EDA6A000EDA22000EDF6E322A010E15
:10108000326445EF08F047EF08F016EF08F0080E5D
:10109000436E040E446E160E706E040E0401036F50
:1010A000200E026F080E016F040E006F008F000EFD
:1010B0005E6E000E0001606F000E616F000E626FC9
:1010C000000E636F000E6A6F000E5B6E1200A09A36
:1010D000000E6A6E000E686E000E706E710E016E6C
:1010E0000F0E026E000E046E000E036E000E066EF2
:1010F000010E056E0CEC13F0160E6F6E9F0E6B6EEC
:101100007B0E696E000E096E0950040D000EF3246B
:10111000D96E040EF420DA6EDE6ADE6ADE6ADD6AFB
:10112000092A070E096497EF08F099EF08F084EF99
:1011300008F06D8C000E6E6E6D986D9C6896000EBA
:10114000406E000E386E000E3A6E000E396E68B6B4
:10115000ACEF08F0AEEF08F09EEF08F0010E0001D2
:101160006E6F010E6D6F000E6C6F000E6B6F000ED8
:10117000706F000E096E0950020D430EF324D96EF4
:10118000000EF420DA6E000EDE6E000EDD6E0950E9
:10119000020D470EF324D96E000EF420DA6E000E15
:1011A000DE6E000EDD6E4F0E0924D96EDA6A000E77
:1011B000DA22000EDF6E4D0E0924D96EDA6A000EB7
:1011C000DA22000EDF6E092A010E0964EAEF08F048
:1011D000ECEF08F0BBEF08F0080E436E040E446E0F
:1011E000160E706E040E0401036F200E026F080EBF
:1011F000016F040E006F008F000E5E6E000E000186
:10120000606F000E616F000E626F000E636F000E64
:101210006A6F000E5B6E12006D9840BE12EF09F00F
:1012200014EF09F05BEF09F038AE19EF09F01BEF8E
:1012300009F02FEF09F0020E596E00016B51D8A48E
:1012400024EF09F026EF09F028EF09F0F5EC0FF094
:10125000000E00016D6F000E6E6FB0EF09F020EE12
:1012600001F05150D9265250DA22080EDF6E20EEDE
:1012700002F05150D9265250DA22200EDE6E040EB2
:10128000DD6E51C0D9FF52C0DAFF0C0EDF6E51C0C7
:10129000D9FF52C0DAFF000EDB8E43C0D9FF44C035
:1012A000DAFF040EDF6E43C0D9FF44C0DAFF000E40
:1012B000DB8EB0EF09F0040120AF61EF09F063EFBE
:1012C00009F081EF09F0010E596E00016C51D8A4AC
:1012D0006CEF09F06EEF09F070EF09F0F5EC0FF02C
:1012E000000E00016D6F000E6E6F5550D8A47BEF9D
:1012F00009F07DEF09F0B0EF09F03DEC0EF0B0EF32
:1013000009F0020E596E20EE01F05150D9265250CC
:10131000DA22080EDF6E20EE02F05150D92652502C
:10132000DA22200EDE6E040EDD6E51C0D9FF52C0EF
:10133000DAFF040EDF6E51C0D9FF52C0DAFF000E93
:10134000DB8E000E00016D6F000E6E6F5550D8A43D
:10135000ACEF09F0AEEF09F0B0EF09F07DEF09F066
:10136000120020EE01F05350D9265450DA22DF50FB
:10137000026E0250395C000E3A58D8B0C2EF09F044
:10138000C4EF09F0C6EF09F039C002F00250395E2F
:10139000000E3A5A000E016EDDEF09F0280E01240E
:1013A000D96EDA6A040EDA2235C0E1FF36C0E2FFF8
:1013B000DFCFE7FF354A362A012A0250015CD8A068
:1013C000E4EF09F0E6EF09F0CEEF09F039503A10FA
:1013D000D8B4EDEF09F0EFEF09F028EF0AF020EEB6
:1013E00001F05150D9265250DA22080EDF6E20EE5D
:1013F00002F05150D9265250DA22280EDE6E040E29
:10140000DD6E53C0D9FF54C0DAFFDFBC0AEF0AF02B
:101410000CEF0AF01AEF0AF051C0D9FF52C0DAFF00
:10142000480EDF6E51C0D9FF52C0DAFF000EDB8ECE
:1014300051EF0AF051C0D9FF52C0DAFF080EDF6E3B
:1014400051C0D9FF52C0DAFF000EDB8E51EF0AF017
:1014500020EE01F05150D9265250DA22080EDF6EEC
:1014600020EE02F05150D9265250DA22200EDE6EC4
:10147000040EDD6E51C0D9FF52C0DAFF040EDF6EDC
:1014800051C0D9FF52C0DAFF000EDB8E389E555096
:10149000D8A44DEF0AF04FEF0AF051EF0AF03DECFF
:1014A0000EF01200326E2A50D8B459EF0AF05BEFFA
:1014B0000AF069EF0AF03250020D430EF324D96EA0
:1014C000000EF420DA6EDECF33F0DDCF34F075EFAE
:1014D0000AF03250020D470EF324D96E000EF420AC
:1014E000DA6EDECF33F0DDCF34F033503410D8A4D1
:1014F0007CEF0AF07EEF0AF084EF0AF0000E2A6E0D
:10150000000E2B6EF0EF0AF020EE02F03350D926D9
:101510003450DA222BC0DEFF2CC0DDFF20EE01F0BC
:101520003350D9263450DA222DC0DFFF33C0D9FF23
:1015300034C0DAFF400EDF1633C0D9FF34C0DAFF03
:10154000000EDB8633C0D9FF34C0DAFF000EDB8E1D
:101550002A50D8B4AEEF0AF0B0EF0AF0CFEF0AF09D
:101560003250020D430EF324D96E000EF420DA6ED1
:10157000DECF2EF0DDCF2FF0040E2E18306E2F5060
:10158000316E3250020D430EF324D96E000EF4205A
:10159000DA6E30C0DEFF31C0DDFFECEF0AF0325012
:1015A000020D470EF324D96E000EF420DA6EDECF62
:1015B0002EF0DDCF2FF0040E2E18306E2F50316E2E
:1015C0003250020D470EF324D96E000EF420DA6E6D
:1015D00030C0DEFF31C0DDFF33C02AF034C02BF055
:1015E0001200096E0150D8B4F8EF0AF0FAEF0AF0D1
:1015F00008EF0BF00950020D430EF324D96E000ED4
:10160000F420DA6EDECF0AF0DDCF0BF014EF0BF032
:101610000950020D470EF324D96E000EF420DA6E45
:10162000DECF0AF0DDCF0BF00A500B10D8A41BEF71
:101630000BF01DEF0BF023EF0BF0000E016E000E10
:10164000026E8FEF0BF020EE02F00A50D9260B50FD
:10165000DA2202C0DEFF03C0DDFF20EE01F00A50F7
:10166000D9260B50DA2204C0DFFF0AC0D9FF0BC015
:10167000DAFF400EDF160AC0D9FF0BC0DAFF000EFA
:10168000DB860AC0D9FF0BC0DAFF000EDB8E0150EB
:10169000D8B44DEF0BF04FEF0BF06EEF0BF009509D
:1016A000020D430EF324D96E000EF420DA6EDECF65
:1016B00005F0DDCF06F0040E0518076E0650086E23
:1016C0000950020D430EF324D96E000EF420DA6E99
:1016D00007C0DEFF08C0DDFF8BEF0BF00950020DE5
:1016E000470EF324D96E000EF420DA6EDECF05F03B
:1016F000DDCF06F0040E0518076E0650086E09507F
:10170000020D470EF324D96E000EF420DA6E07C0E6
:10171000DEFF08C0DDFF0AC001F00BC002F01200BE
:10172000040120511F0BE806D8B499EF0BF09BEF92
:101730000BF09DEF0BF02DEF0CF02451D8B4A3EF7C
:101740000BF0A5EF0BF0A7EF0BF02DEF0CF0060E52
:101750002119D8A4AEEF0BF0B0EF0BF0E1EF0BF0D6
:10176000D2EF0BF05E04D8A4B8EF0BF0BAEF0BF099
:10177000E1EF0BF07D0E3D6E080E3E6E000E426EE8
:10178000090E416EC00E406EE1EF0BF0940E3D6EFF
:10179000080E3E6E000E426E1D0E416EC00E406E73
:1017A000E1EF0BF02351210AD8B4B2EF0BF0030A9A
:1017B000D8B4C6EF0BF0010AD8B4E1EF0BF0E1EFBB
:1017C0000BF02039E832030BE806D8B4EAEF0BF04F
:1017D000ECEF0BF012EF0CF02DEF0CF0720E3D6EF3
:1017E000000E3E6E000E426E010E416EC10E406E46
:1017F0002DEF0CF0800E406E23C472F02DEF0CF034
:10180000710E3D6E000E3E6E000E426E010E416E78
:10181000810E406E2DEF0CF0800E406E22C471F0F0
:101820002DEF0CF02151010AD8B42DEF0CF0030A72
:10183000D8B4EEEF0BF0010AD8B400EF0CF00A0AAE
:10184000D8B42DEF0CF0030AD8B4FAEF0BF0010A6C
:10185000D8B40CEF0CF02DEF0CF01200080E016E56
:10186000425007E1080E415CD8B039EF0CF03BEF75
:101870000CF053EF0CF041C001F05A50D8A443EFE4
:101880000CF045EF0CF049EF0CF0010E5A6E53EFDF
:101890000CF05A04D8A44FEF0CF051EF0CF053EFBA
:1018A0000CF0020E5A6E0150415E000E425A20EEBC
:1018B00001F04350D9264450DA2201C0DFFF280E40
:1018C0000001686F040E696F40B069EF0CF06BEFB8
:1018D0000CF0ADEF0CF088EF0CF03DC0F6FF3EC011
:1018E000F7FFF86A68C0D9FF69C0DAFF070EF7642E
:1018F00003D00800F55005D0F6CFE9FFF7CFEAFF97
:10190000EF50DF6E3D4A3E2A0001684B692B01060D
:101910000150D8A48EEF0CF090EF0CF06DEF0CF0AE
:10192000B5EF0CF03DC0F6FF3EC0F7FFF86A68C0A7
:10193000D9FF69C0DAFF070EF76403D00800F5503D
:1019400005D0F6CFE9FFF7CFEAFFEF50DF6E3D4A53
:101950003E2A0001684B692B01060150D8A4B3EF61
:101960000CF0B5EF0CF092EF0CF0120004012039EE
:10197000E832030B0009D8B4C0EF0CF0C2EF0CF052
:101980000AEF0DF039EF0DF0408E080E5B6E39EF67
:101990000DF01CEC07F039EF0DF0B6EC0EF039EF5E
:1019A0000DF05E0E3D6E000E3E6E4080010E416EEB
:1019B000408E39EF0DF0BCEC0DF039EF0DF064EC1A
:1019C00004F039EF0DF05D0E24253D6E3E6A000EE9
:1019D0003E224080010E416E408E39EF0DF0408E68
:1019E0005D0E2425D96EDA6A000EDA2222C4DFFFEA
:1019F00039EF0DF0000E0E6E020E0D6E000E0F6E22
:101A0000000E106E000E126E000E116E4CEC10F0F7
:101A100039EF0DF02151000AD8B4DBEF0CF0010AC8
:101A2000D8B4DFEF0CF0020AD8B4DFEF0CF0060AEE
:101A3000D8B4C4EF0CF0030AD8B4C9EF0CF0010A13
:101A4000D8B4FAEF0CF00F0AD8B4D1EF0CF0010AB9
:101A5000D8B4CDEF0CF0030AD8B4E3EF0CF0010AD0
:101A6000D8B4EFEF0CF0070AD8B439EF0DF039EF26
:101A70000DF0120043C0D9FF44C0DAFF000EDFBCF6
:101A8000010E026E040E4318436E4450446E080E5D
:101A90005B18D8A44EEF0DF050EF0DF062EF0DF093
:101AA000040122517F0B6E6E6E50D8B45AEF0DF0C8
:101AB0005CEF0DF060EF0DF0100E5B6E62EF0DF05D
:101AC000040E5B6E5904D8A468EF0DF06AEF0DF0B8
:101AD000B1EF0DF020EE02F04350D9264450DA2247
:101AE000280EDE6E040EDD6E2EEC0CF0020E5A187F
:101AF000D8A47DEF0DF07FEF0DF08DEF0DF043C01A
:101B0000D9FF44C0DAFF040EDF6E43C0D9FF44C0E2
:101B1000DAFF000EDB8EBBEF0DF00250D8A493EF7E
:101B20000DF095EF0DF0A3EF0DF043C0D9FF44C0C9
:101B3000DAFF480EDF6E43C0D9FF44C0DAFF000E63
:101B4000DB8EBBEF0DF043C0D9FF44C0DAFF080EB7
:101B5000DF6E43C0D9FF44C0DAFF000EDB8EBBEF5F
:101B60000DF038AEB6EF0DF0B8EF0DF0B9EF0DF0A7
:101B7000389E000E596E1200000E0401286F000EF0
:101B8000296F1EEF0EF0408E5804D8A4CAEF0DF056
:101B9000CCEF0DF02EEF0EF028832EEF0EF0408EDE
:101BA0002EEF0EF0408E24510F0B0009D8B4DBEF5E
:101BB0000DF0DDEF0DF02EEF0EF024BFE2EF0DF093
:101BC000E4EF0DF0F5EF0DF024510F0B016E015015
:101BD000020D470EF324D96E000EF420DA6EDECF2C
:101BE00002F0DDCF03F004EF0EF024510F0B016E75
:101BF0000150020D430EF324D96E000EF420DA6E6C
:101C0000DECF02F0DDCF03F002C0D9FF03C0DAFF60
:101C1000DFAE0DEF0EF00FEF0EF02EEF0EF002C064
:101C2000D9FF03C0DAFFDFA418EF0EF01AEF0EF0B1
:101C30002EEF0EF0010E286F2EEF0EF020511F0B2D
:101C4000000AD8B4C3EF0DF0010AD8B4CFEF0DF0FD
:101C5000030AD8B4D2EF0DF02EEF0EF040AE33EF02
:101C60000EF035EF0EF03CEF0EF0280E3D6E040E38
:101C70003E6E4080020E416E120000016E51D8A4EB
:101C800044EF0EF046EF0EF0B5EF0EF0010E6E6F62
:101C90006D51D8A44EEF0EF050EF0EF0B5EF0EF0F0
:101CA000010E6D6F020E5918D8A459EF0EF05BEFBC
:101CB0000EF071EF0EF020EE01F04350D9264450A3
:101CC000DA22000EDF6E43C0D9FF44C0DAFF480EAF
:101CD000DF6E43C0D9FF44C0DAFF000EDB8EB5EFE4
:101CE0000EF05904D8A477EF0EF079EF0EF0B5EFAF
:101CF0000EF0000E6F6F20EE01F05350D9265450B5
:101D0000DA22080EDF6E20EE02F05350D92654502E
:101D1000DA22200EDE6E040EDD6E53C0D9FF54C0F1
:101D2000DAFF040EDF6E53C0D9FF54C0DAFF000E95
:101D3000DB8E010E6F6F20EE01F05150D92652500C
:101D4000DA22080EDF6E20EE02F05150D9265250F2
:101D5000DA22200EDE6E040EDD6E51C0D9FF52C0B5
:101D6000DAFF800EDF6EB5EF0EF01200408E710EBE
:101D7000016E0F0E026E000E046E000E036E000E5A
:101D8000066E010E056E0CEC13F0000E016E040ED3
:101D9000026E000E046E000E036E000E066E200E24
:101DA000056E0CEC13F06D8C000E156E4F0E1524A5
:101DB000D96EDA6A000EDA22000EDF6E4D0E15249F
:101DC000D96EDA6A000EDA22000EDF6E152A010ED5
:101DD0001564EDEF0EF0EFEF0EF0D6EF0EF05D0EA6
:101DE000016E000E026E000E046E000E036E000EF9
:101DF000066E010E056E0CEC13F06D9C080E436E22
:101E0000040E446E000E536E040E546E53C051F017
:101E100054C052F022C45EF05E50D8A412EF0FF00E
:101E200014EF0FF018EF0FF0100E5B6E28EF0FF0AD
:101E3000000E0E6E010E0D6E5E0E0F6E000E106E19
:101E4000000E126E010E116E4CEC10F0200E5B6E47
:101E500012006DA22EEF0FF030EF0FF08FEF0FF0AA
:101E6000010E5FEC12F098EF0FF04B044C10D8A469
:101E70003CEF0FF03EEF0FF043EF0FF0010E38ECA8
:101E800012F096EF0FF04B0E4B184C10D8A44BEFFE
:101E90000FF04DEF0FF052EF0FF0010E5FEC12F06C
:101EA00096EF0FF04C5009E1970E4B5CD8A05BEF1A
:101EB0000FF05DEF0FF063EF0FF0000E4C6E000EB1
:101EC0004B6E96EF0FF096EF0FF04B044C10D8A42A
:101ED0006CEF0FF06EEF0FF073EF0FF0010E38ECB8
:101EE00012F096EF0FF0320E4B184C10D8A47BEF87
:101EF0000FF07DEF0FF082EF0FF0010E5FEC12F0AC
:101F000096EF0FF0B70E4B5C030E4C58D8A08BEF3A
:101F10000FF08DEF0FF096EF0FF05DEF0FF05B50CD
:101F2000200AD8B435EF0FF065EF0FF04B4A4C2A7A
:101F300012002D0E566E5CC01CF0FD0E1C16D8A4AF
:101F4000A4EF0FF0A6EF0FF0E8EF0FF05CC01CF06D
:101F5000D8901C323F0E1C161C50040D000EF324AA
:101F6000536E040EF420546E53C051F054C052F01E
:101F7000040E5118516E5250526E53C0D9FF54C0C6
:101F8000DAFFDF30E8320F0B0D0AD8A4CAEF0FF0EA
:101F9000CCEF0FF0E4EF0FF0200E016E040E026E96
:101FA00020EE02F05350D9265450DA22DECF03F04F
:101FB000DDCF04F0000E066E080E056E10EC12F078
:101FC000F8EC10F0F4EF0FF040EC11F0F4EF0FF03C
:101FD0005C50FD0B040AD8A4F0EF0FF0F2EF0FF005
:101FE000F4EF0FF03AEC0DF01200000E00016C6FF0
:101FF000000E6B6F020E5918D8A401EF10F003EF1A
:1020000010F023EF10F020EE01F05150D92652507D
:10201000DA22080EDF6E20EE02F05150D92652501F
:10202000DA22280EDE6E040EDD6E51C0D9FF52C0DA
:10203000DAFF480EDF6E51C0D9FF52C0DAFF000E42
:10204000DB8E4BEF10F041500401265D42502759C2
:10205000D8B02DEF10F02FEF10F033EF10F026C4B2
:1020600041F027C442F02EEC0CF020EE02F0435079
:10207000D9264450DA22280EDE6E040EDD6E43C0EF
:10208000D9FF44C0DAFF480EDF6E43C0D9FF44C019
:10209000DAFF000EDB8E120068EF10F029EC0FF073
:1020A000A1EF10F029EC0FF0010E97EC13F0A1EF67
:1020B00010F029EC0FF0020E97EC13F0A1EF10F0E6
:1020C00042EC13F0A1EF10F090EC0BF0A1EF10F048
:1020D0000DC013F00EC014F01450000AD8B477EFFE
:1020E00010F07F0AD8B49AEF10F0A1EF10F013505F
:1020F000010AD8B460EF10F0030AD8B4A1EF10F0D1
:10210000010AD8B464EF10F0060AD8B4A1EF10F0B9
:10211000770AD8B4A1EF10F0010AD8B44EEF10F04E
:10212000070AD8B459EF10F0010AD8B452EF10F0F2
:10213000A1EF10F01350FF0AD8B4A1EF10F0A1EFF7
:1021400010F01200066E000E076E040E086E0150AD
:10215000026E036AD890023603360650046E056A92
:10216000D89004360536D890043605360250042639
:1021700003500522D89004360536D890043605362B
:10218000045007260550082207C0D9FF08C0DAFF0F
:10219000DF9E0150D8A4CFEF10F0D1EF10F0DFEFA9
:1021A00010F00650020D470EF324D96E000EF420F5
:1021B000DA6E07C0DEFF08C0DDFFEBEF10F006505F
:1021C000020D430EF324D96E000EF420DA6E07C020
:1021D000DEFF08C0DDFF07C0D9FF08C0DAFFDF9CC3
:1021E00020EE04F00750D9260850DA22DF8C1200C6
:1021F000000E5A6E000E556E000E00016C6F000E40
:102200006B6F000E6F6F000E596E43C0D9FF44C054
:10221000DAFF7F0EDF16040E4318436E4450446EFF
:1022200043C0D9FF44C0DAFF7F0EDF16040E431807
:10223000436E4450446E51C0D9FF52C0DAFF7F0E46
:10224000DF16000E406E000E426E000E416E000E54
:10225000386E000E3A6E000E396EB6EC0CF0000EC1
:102260000E6E030E0D6E000E0F6E000E106E000E41
:10227000126E000E116E4CEC10F00CEC09F0120016
:10228000020E5918D8A447EF11F049EF11F04DEFA5
:1022900011F0B1EC09F07AEF11F0000E596E000167
:1022A0006F51D8A456EF11F058EF11F078EF11F0FC
:1022B00020EE01F05150D9265250DA22080EDF6E7E
:1022C00020EE02F05150D9265250DA22200EDE6E56
:1022D000040EDD6E51C0D9FF52C0DAFF0C0EDF6E66
:1022E00051C0D9FF52C0DAFF000EDB8E7AEF11F039
:1022F000000E6F6F12000600E9CF1EF0EACF1FF04C
:10230000E1CF20F0E2CF21F0D9CF22F0DACF23F0D5
:10231000F3CF24F0F4CF25F0F6CF26F0F7CF27F057
:10232000F8CF28F0F5CF29F00AEC06F029C0F5FF28
:1023300028C0F8FF27C0F7FF26C0F6FF25C0F4FF2E
:1023400024C0F3FF23C0DAFF22C0D9FF21C0E2FF7F
:1023500020C0E1FF1FC0EAFF1EC0E9FF5F9211002D
:10236000000E86EC13F0C2EC07F0ACEC12F0959E78
:102370008C9EC1EF11F08C8ECDEF11F08C9ECDEFC5
:1023800011F005010051460AD8B4BEEF11F0080A59
:10239000D8B4BBEF11F0CDEF11F0000E2A6E000E95
:1023A0002B6E050E2C6E400E2D6E010E52EC0AF0B7
:1023B0002AC066F02BC067F0C1EF11F007EF00F004
:1023C00070A0E5EF11F0E7EF11F00EEF12F053C03F
:1023D000D9FF54C0DAFF800EDE18D8A4F2EF11F056
:1023E000F4EF11F00DEF12F043C0D9FF44C0DAFF53
:1023F000840EDE18D8A4FFEF11F001EF12F00DEFFC
:1024000012F053C0D9FF54C0DAFF0C0EDF6E53C078
:10241000D9FF54C0DAFF000EDB8E7090689A12006C
:1024200003C009F004C00AF001C007F002C008F0C0
:102430002AEF12F009C0D9FF0AC0DAFFDF500B6E95
:10244000094A0A2A07C0D9FF08C0DAFF0BC0DFFF1C
:10245000074A082A0506D8A00606052806E1062828
:10246000D8A435EF12F037EF12F01AEF12F0120085
:10247000016E47EF12F08C805EEF12F08C825EEFFF
:1024800012F08C845EEF12F08C865EEF12F0015039
:10249000000AD8B45EEF12F0010AD8B43BEF12F094
:1024A000030AD8B43EEF12F0010AD8B441EF12F09B
:1024B000070AD8B444EF12F05EEF12F01200016E7A
:1024C0006EEF12F08C9085EF12F08C9285EF12F087
:1024D0008C9485EF12F08C9685EF12F00150000A73
:1024E000D8B485EF12F0010AD8B462EF12F0030AF3
:1024F000D8B465EF12F0010AD8B468EF12F0070AF9
:10250000D8B46BEF12F085EF12F012000C6E09A434
:102510008CEF12F08EEF12F093EF12F0000E016EBE
:102520000C50A2EC10F009A298EF12F09AEF12F002
:102530009FEF12F0010E016E0C50A2EC10F0700E25
:102540000C240A6E0B6A0F0E0B220AC0D9FF0BC0B7
:10255000DAFF09C0DFFF12005B50D8A4B2EF12F01F
:10256000B4EF12F0CEEF12F0000E6D6E000E696E39
:10257000160E6F6E9F0E6B6E7B0E696ED08EA28AEA
:10258000A08AF28EC5EF12F06D866DA6CAEF12F02A
:10259000CCEF12F0C4EF12F0010E5B6E1200000ED1
:1025A0000001706F000E0E6E740E0D6E000E0F6E39
:1025B000000E106E000E126E000E116E4CEC10F03C
:1025C0006D926994E5EF12F0689468B4EAEF12F046
:1025D000ECEF12F0E4EF12F0000E00016A6F12004F
:1025E0002AC030F02BC031F0FEEF12F030C0D9FF1E
:1025F00031C0DAFF2CC0DFFF304A312A2E06D8A0C6
:102600002F062E2806E12F28D8A409EF13F00BEF90
:1026100013F0F6EF12F0120001C007F002C008F04C
:102620001AEF13F007C0D9FF08C0DAFF03C0DFFFBD
:10263000074A082A0506D8A00606052806E1062846
:10264000D8A425EF13F027EF13F012EF13F01200C8
:10265000010E00016027000E612362236323705185
:10266000D8A435EF13F037EF13F041EF13F06A2BD6
:102670006A51D8A43EEF13F040EF13F041EF13F08E
:102680006A691200000E0001646F000E656F1E0E75
:10269000096E010E86EC12F0000E016E000E026E45
:1026A000050E036E400E046E010EF1EC0AF001C03F
:1026B00066F002C067F01200698468986D82010EAE
:1026C0000001706F000E6A6F000E0E6E750E0D6EBB
:1026D000000E0F6E000E106E000E126E000E116EC8
:1026E0004CEC10F0120000EE60F0130EEE6AE806FB
:1026F000FDE100EE35F02A0EEE6AE806FDE15F909E
:102700005F92000EF86E0001B0EF11F02A6E2A50B1
:10271000000AD8B496EF13F0010AD8B496EF13F07C
:10272000030AD8B496EF13F096EF13F01200016E7F
:102730000150000AD8B4A7EF13F0010AD8B4A7EFEC
:1027400013F0030AD8B4A7EF13F0A7EF13F01200A9
:020000040020DA
:08000000FFFFFFFFFFFFFFFF00
:020000040030CA
:0E000000240E3F1EFF8181FF0FC00FE00F4056
:00000001FF
